{
    "_format": "hh-sol-artifact-1",
    "contractName": "BlackGirl",
    "sourceName": "contracts/BlackGirl.sol",
    "abi": [
        {
            "inputs": [
                {
                    "internalType": "address",
                    "name": "initialOwner",
                    "type": "address"
                },
                {
                    "internalType": "address",
                    "name": "_royaltyRecipient",
                    "type": "address"
                },
                {
                    "internalType": "uint96",
                    "name": "_royaltyPercentage",
                    "type": "uint96"
                }
            ],
            "stateMutability": "nonpayable",
            "type": "constructor"
        },
        {
            "inputs": [],
            "name": "ERC721EnumerableForbiddenBatchMint",
            "type": "error"
        },
        {
            "inputs": [
                {
                    "internalType": "address",
                    "name": "sender",
                    "type": "address"
                },
                {
                    "internalType": "uint256",
                    "name": "tokenId",
                    "type": "uint256"
                },
                {
                    "internalType": "address",
                    "name": "owner",
                    "type": "address"
                }
            ],
            "name": "ERC721IncorrectOwner",
            "type": "error"
        },
        {
            "inputs": [
                {
                    "internalType": "address",
                    "name": "operator",
                    "type": "address"
                },
                {
                    "internalType": "uint256",
                    "name": "tokenId",
                    "type": "uint256"
                }
            ],
            "name": "ERC721InsufficientApproval",
            "type": "error"
        },
        {
            "inputs": [
                {
                    "internalType": "address",
                    "name": "approver",
                    "type": "address"
                }
            ],
            "name": "ERC721InvalidApprover",
            "type": "error"
        },
        {
            "inputs": [
                {
                    "internalType": "address",
                    "name": "operator",
                    "type": "address"
                }
            ],
            "name": "ERC721InvalidOperator",
            "type": "error"
        },
        {
            "inputs": [
                {
                    "internalType": "address",
                    "name": "owner",
                    "type": "address"
                }
            ],
            "name": "ERC721InvalidOwner",
            "type": "error"
        },
        {
            "inputs": [
                {
                    "internalType": "address",
                    "name": "receiver",
                    "type": "address"
                }
            ],
            "name": "ERC721InvalidReceiver",
            "type": "error"
        },
        {
            "inputs": [
                {
                    "internalType": "address",
                    "name": "sender",
                    "type": "address"
                }
            ],
            "name": "ERC721InvalidSender",
            "type": "error"
        },
        {
            "inputs": [
                {
                    "internalType": "uint256",
                    "name": "tokenId",
                    "type": "uint256"
                }
            ],
            "name": "ERC721NonexistentToken",
            "type": "error"
        },
        {
            "inputs": [
                {
                    "internalType": "address",
                    "name": "owner",
                    "type": "address"
                },
                {
                    "internalType": "uint256",
                    "name": "index",
                    "type": "uint256"
                }
            ],
            "name": "ERC721OutOfBoundsIndex",
            "type": "error"
        },
        {
            "inputs": [],
            "name": "EnforcedPause",
            "type": "error"
        },
        {
            "inputs": [],
            "name": "ExpectedPause",
            "type": "error"
        },
        {
            "inputs": [
                {
                    "internalType": "address",
                    "name": "owner",
                    "type": "address"
                }
            ],
            "name": "OwnableInvalidOwner",
            "type": "error"
        },
        {
            "inputs": [
                {
                    "internalType": "address",
                    "name": "account",
                    "type": "address"
                }
            ],
            "name": "OwnableUnauthorizedAccount",
            "type": "error"
        },
        {
            "anonymous": false,
            "inputs": [
                {
                    "indexed": true,
                    "internalType": "address",
                    "name": "owner",
                    "type": "address"
                },
                {
                    "indexed": true,
                    "internalType": "address",
                    "name": "approved",
                    "type": "address"
                },
                {
                    "indexed": true,
                    "internalType": "uint256",
                    "name": "tokenId",
                    "type": "uint256"
                }
            ],
            "name": "Approval",
            "type": "event"
        },
        {
            "anonymous": false,
            "inputs": [
                {
                    "indexed": true,
                    "internalType": "address",
                    "name": "owner",
                    "type": "address"
                },
                {
                    "indexed": true,
                    "internalType": "address",
                    "name": "operator",
                    "type": "address"
                },
                {
                    "indexed": false,
                    "internalType": "bool",
                    "name": "approved",
                    "type": "bool"
                }
            ],
            "name": "ApprovalForAll",
            "type": "event"
        },
        {
            "anonymous": false,
            "inputs": [
                {
                    "indexed": false,
                    "internalType": "uint256",
                    "name": "_fromTokenId",
                    "type": "uint256"
                },
                {
                    "indexed": false,
                    "internalType": "uint256",
                    "name": "_toTokenId",
                    "type": "uint256"
                }
            ],
            "name": "BatchMetadataUpdate",
            "type": "event"
        },
        {
            "anonymous": false,
            "inputs": [
                {
                    "indexed": false,
                    "internalType": "uint256",
                    "name": "_tokenId",
                    "type": "uint256"
                }
            ],
            "name": "MetadataUpdate",
            "type": "event"
        },
        {
            "anonymous": false,
            "inputs": [
                {
                    "indexed": true,
                    "internalType": "address",
                    "name": "to",
                    "type": "address"
                },
                {
                    "indexed": true,
                    "internalType": "uint256",
                    "name": "tokenId",
                    "type": "uint256"
                }
            ],
            "name": "Mint",
            "type": "event"
        },
        {
            "anonymous": false,
            "inputs": [
                {
                    "indexed": true,
                    "internalType": "address",
                    "name": "previousOwner",
                    "type": "address"
                },
                {
                    "indexed": true,
                    "internalType": "address",
                    "name": "newOwner",
                    "type": "address"
                }
            ],
            "name": "OwnershipTransferred",
            "type": "event"
        },
        {
            "anonymous": false,
            "inputs": [
                {
                    "indexed": false,
                    "internalType": "address",
                    "name": "account",
                    "type": "address"
                }
            ],
            "name": "Paused",
            "type": "event"
        },
        {
            "anonymous": false,
            "inputs": [
                {
                    "indexed": true,
                    "internalType": "address",
                    "name": "from",
                    "type": "address"
                },
                {
                    "indexed": true,
                    "internalType": "address",
                    "name": "to",
                    "type": "address"
                },
                {
                    "indexed": true,
                    "internalType": "uint256",
                    "name": "tokenId",
                    "type": "uint256"
                }
            ],
            "name": "Transfer",
            "type": "event"
        },
        {
            "anonymous": false,
            "inputs": [
                {
                    "indexed": false,
                    "internalType": "address",
                    "name": "account",
                    "type": "address"
                }
            ],
            "name": "Unpaused",
            "type": "event"
        },
        {
            "inputs": [
                {
                    "internalType": "address",
                    "name": "",
                    "type": "address"
                }
            ],
            "name": "Walletmints",
            "outputs": [
                {
                    "internalType": "uint256",
                    "name": "",
                    "type": "uint256"
                }
            ],
            "stateMutability": "view",
            "type": "function"
        },
        {
            "inputs": [
                {
                    "internalType": "address",
                    "name": "",
                    "type": "address"
                }
            ],
            "name": "allowList",
            "outputs": [
                {
                    "internalType": "bool",
                    "name": "",
                    "type": "bool"
                }
            ],
            "stateMutability": "view",
            "type": "function"
        },
        {
            "inputs": [
                {
                    "internalType": "uint256",
                    "name": "amount",
                    "type": "uint256"
                }
            ],
            "name": "allowlistMint",
            "outputs": [],
            "stateMutability": "payable",
            "type": "function"
        },
        {
            "inputs": [],
            "name": "allowlistMintopen",
            "outputs": [
                {
                    "internalType": "bool",
                    "name": "",
                    "type": "bool"
                }
            ],
            "stateMutability": "view",
            "type": "function"
        },
        {
            "inputs": [
                {
                    "internalType": "address",
                    "name": "to",
                    "type": "address"
                },
                {
                    "internalType": "uint256",
                    "name": "tokenId",
                    "type": "uint256"
                }
            ],
            "name": "approve",
            "outputs": [],
            "stateMutability": "nonpayable",
            "type": "function"
        },
        {
            "inputs": [
                {
                    "internalType": "address",
                    "name": "owner",
                    "type": "address"
                }
            ],
            "name": "balanceOf",
            "outputs": [
                {
                    "internalType": "uint256",
                    "name": "",
                    "type": "uint256"
                }
            ],
            "stateMutability": "view",
            "type": "function"
        },
        {
            "inputs": [
                {
                    "internalType": "bool",
                    "name": "_publicMintopen",
                    "type": "bool"
                },
                {
                    "internalType": "bool",
                    "name": "_allowlistMintopen",
                    "type": "bool"
                }
            ],
            "name": "editMintWindows",
            "outputs": [],
            "stateMutability": "nonpayable",
            "type": "function"
        },
        {
            "inputs": [
                {
                    "internalType": "uint256",
                    "name": "tokenId",
                    "type": "uint256"
                }
            ],
            "name": "getApproved",
            "outputs": [
                {
                    "internalType": "address",
                    "name": "",
                    "type": "address"
                }
            ],
            "stateMutability": "view",
            "type": "function"
        },
        {
            "inputs": [
                {
                    "internalType": "address",
                    "name": "owner",
                    "type": "address"
                },
                {
                    "internalType": "address",
                    "name": "operator",
                    "type": "address"
                }
            ],
            "name": "isApprovedForAll",
            "outputs": [
                {
                    "internalType": "bool",
                    "name": "",
                    "type": "bool"
                }
            ],
            "stateMutability": "view",
            "type": "function"
        },
        {
            "inputs": [],
            "name": "maxPerWallet",
            "outputs": [
                {
                    "internalType": "uint256",
                    "name": "",
                    "type": "uint256"
                }
            ],
            "stateMutability": "view",
            "type": "function"
        },
        {
            "inputs": [],
            "name": "name",
            "outputs": [
                {
                    "internalType": "string",
                    "name": "",
                    "type": "string"
                }
            ],
            "stateMutability": "view",
            "type": "function"
        },
        {
            "inputs": [],
            "name": "owner",
            "outputs": [
                {
                    "internalType": "address",
                    "name": "",
                    "type": "address"
                }
            ],
            "stateMutability": "view",
            "type": "function"
        },
        {
            "inputs": [
                {
                    "internalType": "uint256",
                    "name": "tokenId",
                    "type": "uint256"
                }
            ],
            "name": "ownerOf",
            "outputs": [
                {
                    "internalType": "address",
                    "name": "",
                    "type": "address"
                }
            ],
            "stateMutability": "view",
            "type": "function"
        },
        {
            "inputs": [],
            "name": "pause",
            "outputs": [],
            "stateMutability": "nonpayable",
            "type": "function"
        },
        {
            "inputs": [],
            "name": "paused",
            "outputs": [
                {
                    "internalType": "bool",
                    "name": "",
                    "type": "bool"
                }
            ],
            "stateMutability": "view",
            "type": "function"
        },
        {
            "inputs": [
                {
                    "internalType": "uint256",
                    "name": "amount",
                    "type": "uint256"
                }
            ],
            "name": "publicMint",
            "outputs": [],
            "stateMutability": "payable",
            "type": "function"
        },
        {
            "inputs": [],
            "name": "publicMintopen",
            "outputs": [
                {
                    "internalType": "bool",
                    "name": "",
                    "type": "bool"
                }
            ],
            "stateMutability": "view",
            "type": "function"
        },
        {
            "inputs": [],
            "name": "renounceOwnership",
            "outputs": [],
            "stateMutability": "nonpayable",
            "type": "function"
        },
        {
            "inputs": [
                {
                    "internalType": "uint256",
                    "name": "",
                    "type": "uint256"
                },
                {
                    "internalType": "uint256",
                    "name": "_salePrice",
                    "type": "uint256"
                }
            ],
            "name": "royaltyInfo",
            "outputs": [
                {
                    "internalType": "address",
                    "name": "receiver",
                    "type": "address"
                },
                {
                    "internalType": "uint256",
                    "name": "royaltyAmount",
                    "type": "uint256"
                }
            ],
            "stateMutability": "view",
            "type": "function"
        },
        {
            "inputs": [
                {
                    "internalType": "address",
                    "name": "from",
                    "type": "address"
                },
                {
                    "internalType": "address",
                    "name": "to",
                    "type": "address"
                },
                {
                    "internalType": "uint256",
                    "name": "tokenId",
                    "type": "uint256"
                }
            ],
            "name": "safeTransferFrom",
            "outputs": [],
            "stateMutability": "nonpayable",
            "type": "function"
        },
        {
            "inputs": [
                {
                    "internalType": "address",
                    "name": "from",
                    "type": "address"
                },
                {
                    "internalType": "address",
                    "name": "to",
                    "type": "address"
                },
                {
                    "internalType": "uint256",
                    "name": "tokenId",
                    "type": "uint256"
                },
                {
                    "internalType": "bytes",
                    "name": "data",
                    "type": "bytes"
                }
            ],
            "name": "safeTransferFrom",
            "outputs": [],
            "stateMutability": "nonpayable",
            "type": "function"
        },
        {
            "inputs": [
                {
                    "internalType": "address[]",
                    "name": "addresses",
                    "type": "address[]"
                }
            ],
            "name": "setAllowList",
            "outputs": [],
            "stateMutability": "nonpayable",
            "type": "function"
        },
        {
            "inputs": [
                {
                    "internalType": "address",
                    "name": "operator",
                    "type": "address"
                },
                {
                    "internalType": "bool",
                    "name": "approved",
                    "type": "bool"
                }
            ],
            "name": "setApprovalForAll",
            "outputs": [],
            "stateMutability": "nonpayable",
            "type": "function"
        },
        {
            "inputs": [
                {
                    "internalType": "address",
                    "name": "recipient",
                    "type": "address"
                },
                {
                    "internalType": "uint96",
                    "name": "percentage",
                    "type": "uint96"
                }
            ],
            "name": "setRoyaltyInfo",
            "outputs": [],
            "stateMutability": "nonpayable",
            "type": "function"
        },
        {
            "inputs": [
                {
                    "internalType": "bytes4",
                    "name": "interfaceId",
                    "type": "bytes4"
                }
            ],
            "name": "supportsInterface",
            "outputs": [
                {
                    "internalType": "bool",
                    "name": "",
                    "type": "bool"
                }
            ],
            "stateMutability": "view",
            "type": "function"
        },
        {
            "inputs": [],
            "name": "symbol",
            "outputs": [
                {
                    "internalType": "string",
                    "name": "",
                    "type": "string"
                }
            ],
            "stateMutability": "view",
            "type": "function"
        },
        {
            "inputs": [
                {
                    "internalType": "uint256",
                    "name": "index",
                    "type": "uint256"
                }
            ],
            "name": "tokenByIndex",
            "outputs": [
                {
                    "internalType": "uint256",
                    "name": "",
                    "type": "uint256"
                }
            ],
            "stateMutability": "view",
            "type": "function"
        },
        {
            "inputs": [
                {
                    "internalType": "address",
                    "name": "owner",
                    "type": "address"
                },
                {
                    "internalType": "uint256",
                    "name": "index",
                    "type": "uint256"
                }
            ],
            "name": "tokenOfOwnerByIndex",
            "outputs": [
                {
                    "internalType": "uint256",
                    "name": "",
                    "type": "uint256"
                }
            ],
            "stateMutability": "view",
            "type": "function"
        },
        {
            "inputs": [
                {
                    "internalType": "uint256",
                    "name": "tokenId",
                    "type": "uint256"
                }
            ],
            "name": "tokenURI",
            "outputs": [
                {
                    "internalType": "string",
                    "name": "",
                    "type": "string"
                }
            ],
            "stateMutability": "view",
            "type": "function"
        },
        {
            "inputs": [],
            "name": "totalSupply",
            "outputs": [
                {
                    "internalType": "uint256",
                    "name": "",
                    "type": "uint256"
                }
            ],
            "stateMutability": "view",
            "type": "function"
        },
        {
            "inputs": [
                {
                    "internalType": "address",
                    "name": "from",
                    "type": "address"
                },
                {
                    "internalType": "address",
                    "name": "to",
                    "type": "address"
                },
                {
                    "internalType": "uint256",
                    "name": "tokenId",
                    "type": "uint256"
                }
            ],
            "name": "transferFrom",
            "outputs": [],
            "stateMutability": "nonpayable",
            "type": "function"
        },
        {
            "inputs": [
                {
                    "internalType": "address",
                    "name": "newOwner",
                    "type": "address"
                }
            ],
            "name": "transferOwnership",
            "outputs": [],
            "stateMutability": "nonpayable",
            "type": "function"
        },
        {
            "inputs": [],
            "name": "unpause",
            "outputs": [],
            "stateMutability": "nonpayable",
            "type": "function"
        },
        {
            "inputs": [
                {
                    "internalType": "address",
                    "name": "_addr",
                    "type": "address"
                }
            ],
            "name": "withdraw",
            "outputs": [],
            "stateMutability": "nonpayable",
            "type": "function"
        }
    ],
    "bytecode": "0x60806040526064600e55600a600f556000601160006101000a81548160ff0219169083151502179055506000601160016101000a81548160ff0219169083151502179055503480156200005157600080fd5b50604051620046b5380380620046b5833981810160405281019062000077919062000468565b826040518060400160405280600981526020017f426c61636b4769726c00000000000000000000000000000000000000000000008152506040518060400160405280600281526020017f42470000000000000000000000000000000000000000000000000000000000008152508160009081620000f591906200073e565b5080600190816200010791906200073e565b5050506000600a60006101000a81548160ff021916908315150217905550600073ffffffffffffffffffffffffffffffffffffffff168173ffffffffffffffffffffffffffffffffffffffff16036200019a5760006040517f1e4fbdf700000000000000000000000000000000000000000000000000000000815260040162000191919062000836565b60405180910390fd5b620001ab81620002ef60201b60201c565b50600073ffffffffffffffffffffffffffffffffffffffff168273ffffffffffffffffffffffffffffffffffffffff16036200021e576040517f08c379a00000000000000000000000000000000000000000000000000000000081526004016200021590620008da565b60405180910390fd5b612710816bffffffffffffffffffffffff16111562000274576040517f08c379a00000000000000000000000000000000000000000000000000000000081526004016200026b906200094c565b60405180910390fd5b81601060006101000a81548173ffffffffffffffffffffffffffffffffffffffff021916908373ffffffffffffffffffffffffffffffffffffffff16021790555080601060146101000a8154816bffffffffffffffffffffffff02191690836bffffffffffffffffffffffff1602179055505050506200096e565b6000600c60009054906101000a900473ffffffffffffffffffffffffffffffffffffffff16905081600c60006101000a81548173ffffffffffffffffffffffffffffffffffffffff021916908373ffffffffffffffffffffffffffffffffffffffff1602179055508173ffffffffffffffffffffffffffffffffffffffff168173ffffffffffffffffffffffffffffffffffffffff167f8be0079c531659141344cd1fd0a4f28419497f9722a3daafe3b4186f6b6457e060405160405180910390a35050565b600080fd5b600073ffffffffffffffffffffffffffffffffffffffff82169050919050565b6000620003e782620003ba565b9050919050565b620003f981620003da565b81146200040557600080fd5b50565b6000815190506200041981620003ee565b92915050565b60006bffffffffffffffffffffffff82169050919050565b62000442816200041f565b81146200044e57600080fd5b50565b600081519050620004628162000437565b92915050565b600080600060608486031215620004845762000483620003b5565b5b6000620004948682870162000408565b9350506020620004a78682870162000408565b9250506040620004ba8682870162000451565b9150509250925092565b600081519050919050565b7f4e487b7100000000000000000000000000000000000000000000000000000000600052604160045260246000fd5b7f4e487b7100000000000000000000000000000000000000000000000000000000600052602260045260246000fd5b600060028204905060018216806200054657607f821691505b6020821081036200055c576200055b620004fe565b5b50919050565b60008190508160005260206000209050919050565b60006020601f8301049050919050565b600082821b905092915050565b600060088302620005c67fffffffffffffffffffffffffffffffffffffffffffffffffffffffffffffffff8262000587565b620005d2868362000587565b95508019841693508086168417925050509392505050565b6000819050919050565b6000819050919050565b60006200061f620006196200061384620005ea565b620005f4565b620005ea565b9050919050565b6000819050919050565b6200063b83620005fe565b620006536200064a8262000626565b84845462000594565b825550505050565b600090565b6200066a6200065b565b6200067781848462000630565b505050565b5b818110156200069f576200069360008262000660565b6001810190506200067d565b5050565b601f821115620006ee57620006b88162000562565b620006c38462000577565b81016020851015620006d3578190505b620006eb620006e28562000577565b8301826200067c565b50505b505050565b600082821c905092915050565b60006200071360001984600802620006f3565b1980831691505092915050565b60006200072e838362000700565b9150826002028217905092915050565b6200074982620004c4565b67ffffffffffffffff811115620007655762000764620004cf565b5b6200077182546200052d565b6200077e828285620006a3565b600060209050601f831160018114620007b65760008415620007a1578287015190505b620007ad858262000720565b8655506200081d565b601f198416620007c68662000562565b60005b82811015620007f057848901518255600182019150602085019450602081019050620007c9565b868310156200081057848901516200080c601f89168262000700565b8355505b6001600288020188555050505b505050505050565b6200083081620003da565b82525050565b60006020820190506200084d600083018462000825565b92915050565b600082825260208201905092915050565b7f526f79616c747920726563697069656e742063616e6e6f74206265207a65726f60008201527f2061646472657373000000000000000000000000000000000000000000000000602082015250565b6000620008c260288362000853565b9150620008cf8262000864565b604082019050919050565b60006020820190508181036000830152620008f581620008b3565b9050919050565b7f526f79616c74792070657263656e7461676520746f6f20686967680000000000600082015250565b600062000934601b8362000853565b91506200094182620008fc565b602082019050919050565b60006020820190508181036000830152620009678162000925565b9050919050565b613d37806200097e6000396000f3fe6080604052600436106101f95760003560e01c806351cff8d91161010d5780638da5cb5b116100a0578063c180526a1161006f578063c180526a14610723578063c87b56dd1461073f578063e985e9c51461077c578063f2fde38b146107b9578063f51c24d9146107e2576101f9565b80638da5cb5b1461067b57806395d89b41146106a6578063a22cb465146106d1578063b88d4fde146106fa576101f9565b806370a08231116100dc57806370a08231146105d3578063715018a6146106105780638032c7f1146106275780638456cb5914610664576101f9565b806351cff8d9146105195780635c975abb146105425780636352211e1461056d5780636447c35d146105aa576101f9565b80632a55205a116101905780633ae532961161015f5780633ae53296146104465780633f4ba83a1461047157806342842e0e14610488578063453c2310146104b15780634f6ccce7146104dc576101f9565b80632a55205a146103865780632db11544146103c45780632f48de79146103e05780632f745c5914610409576101f9565b8063095ea7b3116101cc578063095ea7b3146102cc57806318160ddd146102f557806323b872dd146103205780632848aeaf14610349576101f9565b806301ffc9a7146101fe57806302fa7c471461023b57806306fdde0314610264578063081812fc1461028f575b600080fd5b34801561020a57600080fd5b5061022560048036038101906102209190612e8a565b61080d565b6040516102329190612ed2565b60405180910390f35b34801561024757600080fd5b50610262600480360381019061025d9190612f8f565b610887565b005b34801561027057600080fd5b50610279610905565b604051610286919061305f565b60405180910390f35b34801561029b57600080fd5b506102b660048036038101906102b191906130b7565b610997565b6040516102c391906130f3565b60405180910390f35b3480156102d857600080fd5b506102f360048036038101906102ee919061310e565b6109b3565b005b34801561030157600080fd5b5061030a6109c9565b604051610317919061315d565b60405180910390f35b34801561032c57600080fd5b5061034760048036038101906103429190613178565b6109d6565b005b34801561035557600080fd5b50610370600480360381019061036b91906131cb565b610ad8565b60405161037d9190612ed2565b60405180910390f35b34801561039257600080fd5b506103ad60048036038101906103a891906131f8565b610af8565b6040516103bb929190613238565b60405180910390f35b6103de60048036038101906103d991906130b7565b610b6a565b005b3480156103ec57600080fd5b506104076004803603810190610402919061328d565b610db5565b005b34801561041557600080fd5b50610430600480360381019061042b919061310e565b610df5565b60405161043d919061315d565b60405180910390f35b34801561045257600080fd5b5061045b610e9e565b6040516104689190612ed2565b60405180910390f35b34801561047d57600080fd5b50610486610eb1565b005b34801561049457600080fd5b506104af60048036038101906104aa9190613178565b610ec3565b005b3480156104bd57600080fd5b506104c6610ee3565b6040516104d3919061315d565b60405180910390f35b3480156104e857600080fd5b5061050360048036038101906104fe91906130b7565b610ee8565b604051610510919061315d565b60405180910390f35b34801561052557600080fd5b50610540600480360381019061053b91906131cb565b610f5e565b005b34801561054e57600080fd5b50610557610fb6565b6040516105649190612ed2565b60405180910390f35b34801561057957600080fd5b50610594600480360381019061058f91906130b7565b610fcd565b6040516105a191906130f3565b60405180910390f35b3480156105b657600080fd5b506105d160048036038101906105cc9190613332565b610fdf565b005b3480156105df57600080fd5b506105fa60048036038101906105f591906131cb565b611140565b604051610607919061315d565b60405180910390f35b34801561061c57600080fd5b506106256111fa565b005b34801561063357600080fd5b5061064e600480360381019061064991906131cb565b61120e565b60405161065b919061315d565b60405180910390f35b34801561067057600080fd5b50610679611226565b005b34801561068757600080fd5b50610690611238565b60405161069d91906130f3565b60405180910390f35b3480156106b257600080fd5b506106bb611262565b6040516106c8919061305f565b60405180910390f35b3480156106dd57600080fd5b506106f860048036038101906106f3919061337f565b6112f4565b005b34801561070657600080fd5b50610721600480360381019061071c91906134ef565b61130a565b005b61073d600480360381019061073891906130b7565b611327565b005b34801561074b57600080fd5b50610766600480360381019061076191906130b7565b6114cb565b604051610773919061305f565b60405180910390f35b34801561078857600080fd5b506107a3600480360381019061079e9190613572565b6114dd565b6040516107b09190612ed2565b60405180910390f35b3480156107c557600080fd5b506107e060048036038101906107db91906131cb565b611571565b005b3480156107ee57600080fd5b506107f76115f7565b6040516108049190612ed2565b60405180910390f35b60007f2a55205a000000000000000000000000000000000000000000000000000000007bffffffffffffffffffffffffffffffffffffffffffffffffffffffff1916827bffffffffffffffffffffffffffffffffffffffffffffffffffffffff19161480610880575061087f8261160a565b5b9050919050565b61088f61166b565b81601060006101000a81548173ffffffffffffffffffffffffffffffffffffffff021916908373ffffffffffffffffffffffffffffffffffffffff16021790555080601060146101000a8154816bffffffffffffffffffffffff02191690836bffffffffffffffffffffffff1602179055505050565b606060008054610914906135e1565b80601f0160208091040260200160405190810160405280929190818152602001828054610940906135e1565b801561098d5780601f106109625761010080835404028352916020019161098d565b820191906000526020600020905b81548152906001019060200180831161097057829003601f168201915b5050505050905090565b60006109a2826116f2565b506109ac8261177a565b9050919050565b6109c582826109c06117b7565b6117bf565b5050565b6000600880549050905090565b600073ffffffffffffffffffffffffffffffffffffffff168273ffffffffffffffffffffffffffffffffffffffff1603610a485760006040517f64a0ae92000000000000000000000000000000000000000000000000000000008152600401610a3f91906130f3565b60405180910390fd5b6000610a5c8383610a576117b7565b6117d1565b90508373ffffffffffffffffffffffffffffffffffffffff168173ffffffffffffffffffffffffffffffffffffffff1614610ad2578382826040517f64283d7b000000000000000000000000000000000000000000000000000000008152600401610ac993929190613612565b60405180910390fd5b50505050565b60136020528060005260406000206000915054906101000a900460ff1681565b600080601060009054906101000a900473ffffffffffffffffffffffffffffffffffffffff169150612710601060149054906101000a90046bffffffffffffffffffffffff166bffffffffffffffffffffffff1684610b579190613678565b610b6191906136e9565b90509250929050565b601160009054906101000a900460ff16610bb9576040517f08c379a0000000000000000000000000000000000000000000000000000000008152600401610bb090613766565b60405180910390fd5b60008111610bfc576040517f08c379a0000000000000000000000000000000000000000000000000000000008152600401610bf3906137d2565b60405180910390fd5b600181601260003373ffffffffffffffffffffffffffffffffffffffff1673ffffffffffffffffffffffffffffffffffffffff16815260200190815260200160002054610c4991906137f2565b1115610c8a576040517f08c379a0000000000000000000000000000000000000000000000000000000008152600401610c8190613872565b60405180910390fd5b80601260003373ffffffffffffffffffffffffffffffffffffffff1673ffffffffffffffffffffffffffffffffffffffff1681526020019081526020016000206000828254610cd991906137f2565b9250508190555066038d7ea4c6800081610cf39190613678565b3414610d34576040517f08c379a0000000000000000000000000000000000000000000000000000000008152600401610d2b906138de565b60405180910390fd5b600e5481610d406109c9565b610d4a91906137f2565b1115610d8b576040517f08c379a0000000000000000000000000000000000000000000000000000000008152600401610d829061394a565b60405180910390fd5b60005b81811015610db157610d9e6117e7565b8080610da99061396a565b915050610d8e565b5050565b610dbd61166b565b81601160006101000a81548160ff02191690831515021790555080601160016101000a81548160ff0219169083151502179055505050565b6000610e0083611140565b8210610e455782826040517fa57d13dc000000000000000000000000000000000000000000000000000000008152600401610e3c929190613238565b60405180910390fd5b600660008473ffffffffffffffffffffffffffffffffffffffff1673ffffffffffffffffffffffffffffffffffffffff168152602001908152602001600020600083815260200190815260200160002054905092915050565b601160019054906101000a900460ff1681565b610eb961166b565b610ec1611853565b565b610ede8383836040518060200160405280600081525061130a565b505050565b600181565b6000610ef26109c9565b8210610f38576000826040517fa57d13dc000000000000000000000000000000000000000000000000000000008152600401610f2f929190613238565b60405180910390fd5b60088281548110610f4c57610f4b6139b2565b5b90600052602060002001549050919050565b610f6661166b565b60004790508173ffffffffffffffffffffffffffffffffffffffff166108fc829081150290604051600060405180830381858888f19350505050158015610fb1573d6000803e3d6000fd5b505050565b6000600a60009054906101000a900460ff16905090565b6000610fd8826116f2565b9050919050565b610fe761166b565b60005b8282905081101561113b576013600084848481811061100c5761100b6139b2565b5b905060200201602081019061102191906131cb565b73ffffffffffffffffffffffffffffffffffffffff1673ffffffffffffffffffffffffffffffffffffffff16815260200190815260200160002060009054906101000a900460ff16156110a9576040517f08c379a00000000000000000000000000000000000000000000000000000000081526004016110a090613a2d565b60405180910390fd5b6001601360008585858181106110c2576110c16139b2565b5b90506020020160208101906110d791906131cb565b73ffffffffffffffffffffffffffffffffffffffff1673ffffffffffffffffffffffffffffffffffffffff16815260200190815260200160002060006101000a81548160ff02191690831515021790555080806111339061396a565b915050610fea565b505050565b60008073ffffffffffffffffffffffffffffffffffffffff168273ffffffffffffffffffffffffffffffffffffffff16036111b35760006040517f89c62b640000000000000000000000000000000000000000000000000000000081526004016111aa91906130f3565b60405180910390fd5b600360008373ffffffffffffffffffffffffffffffffffffffff1673ffffffffffffffffffffffffffffffffffffffff168152602001908152602001600020549050919050565b61120261166b565b61120c60006118b6565b565b60126020528060005260406000206000915090505481565b61122e61166b565b61123661197c565b565b6000600c60009054906101000a900473ffffffffffffffffffffffffffffffffffffffff16905090565b606060018054611271906135e1565b80601f016020809104026020016040519081016040528092919081815260200182805461129d906135e1565b80156112ea5780601f106112bf576101008083540402835291602001916112ea565b820191906000526020600020905b8154815290600101906020018083116112cd57829003601f168201915b5050505050905090565b6113066112ff6117b7565b83836119df565b5050565b6113158484846109d6565b61132184848484611b4e565b50505050565b601160019054906101000a900460ff16611376576040517f08c379a000000000000000000000000000000000000000000000000000000000815260040161136d90613a99565b60405180910390fd5b601360003373ffffffffffffffffffffffffffffffffffffffff1673ffffffffffffffffffffffffffffffffffffffff16815260200190815260200160002060009054906101000a900460ff16611402576040517f08c379a00000000000000000000000000000000000000000000000000000000081526004016113f990613b05565b60405180910390fd5b655af3107a4000816114149190613678565b3414611455576040517f08c379a000000000000000000000000000000000000000000000000000000000815260040161144c906138de565b60405180910390fd5b600f546114606109c9565b11156114a1576040517f08c379a00000000000000000000000000000000000000000000000000000000081526004016114989061394a565b60405180910390fd5b60005b818110156114c7576114b46117e7565b80806114bf9061396a565b9150506114a4565b5050565b60606114d682611d05565b9050919050565b6000600560008473ffffffffffffffffffffffffffffffffffffffff1673ffffffffffffffffffffffffffffffffffffffff16815260200190815260200160002060008373ffffffffffffffffffffffffffffffffffffffff1673ffffffffffffffffffffffffffffffffffffffff16815260200190815260200160002060009054906101000a900460ff16905092915050565b61157961166b565b600073ffffffffffffffffffffffffffffffffffffffff168173ffffffffffffffffffffffffffffffffffffffff16036115eb5760006040517f1e4fbdf70000000000000000000000000000000000000000000000000000000081526004016115e291906130f3565b60405180910390fd5b6115f4816118b6565b50565b601160009054906101000a900460ff1681565b6000634906490660e01b7bffffffffffffffffffffffffffffffffffffffffffffffffffffffff1916827bffffffffffffffffffffffffffffffffffffffffffffffffffffffff19161480611664575061166382611e18565b5b9050919050565b6116736117b7565b73ffffffffffffffffffffffffffffffffffffffff16611691611238565b73ffffffffffffffffffffffffffffffffffffffff16146116f0576116b46117b7565b6040517f118cdaa70000000000000000000000000000000000000000000000000000000081526004016116e791906130f3565b60405180910390fd5b565b6000806116fe83611e92565b9050600073ffffffffffffffffffffffffffffffffffffffff168173ffffffffffffffffffffffffffffffffffffffff160361177157826040517f7e273289000000000000000000000000000000000000000000000000000000008152600401611768919061315d565b60405180910390fd5b80915050919050565b60006004600083815260200190815260200160002060009054906101000a900473ffffffffffffffffffffffffffffffffffffffff169050919050565b600033905090565b6117cc8383836001611ecf565b505050565b60006117de848484612094565b90509392505050565b6000600d60008154809291906117fc9061396a565b91905055905061180c33826120b2565b803373ffffffffffffffffffffffffffffffffffffffff167f0f6798a560793a54c3bcfe86a93cde1e73087d944c0ea20544137d412139688560405160405180910390a350565b61185b6120d0565b6000600a60006101000a81548160ff0219169083151502179055507f5db9ee0a495bf2e6ff9c91a7834c1ba4fdd244a5e8aa4e537bd38aeae4b073aa61189f6117b7565b6040516118ac91906130f3565b60405180910390a1565b6000600c60009054906101000a900473ffffffffffffffffffffffffffffffffffffffff16905081600c60006101000a81548173ffffffffffffffffffffffffffffffffffffffff021916908373ffffffffffffffffffffffffffffffffffffffff1602179055508173ffffffffffffffffffffffffffffffffffffffff168173ffffffffffffffffffffffffffffffffffffffff167f8be0079c531659141344cd1fd0a4f28419497f9722a3daafe3b4186f6b6457e060405160405180910390a35050565b611984612110565b6001600a60006101000a81548160ff0219169083151502179055507f62e78cea01bee320cd4e420270b5ea74000d11b0c9f74754ebdbfc544b05a2586119c86117b7565b6040516119d591906130f3565b60405180910390a1565b600073ffffffffffffffffffffffffffffffffffffffff168273ffffffffffffffffffffffffffffffffffffffff1603611a5057816040517f5b08ba18000000000000000000000000000000000000000000000000000000008152600401611a4791906130f3565b60405180910390fd5b80600560008573ffffffffffffffffffffffffffffffffffffffff1673ffffffffffffffffffffffffffffffffffffffff16815260200190815260200160002060008473ffffffffffffffffffffffffffffffffffffffff1673ffffffffffffffffffffffffffffffffffffffff16815260200190815260200160002060006101000a81548160ff0219169083151502179055508173ffffffffffffffffffffffffffffffffffffffff168373ffffffffffffffffffffffffffffffffffffffff167f17307eab39ab6107e8899845ad3d59bd9653f200f220920489ca2b5937696c3183604051611b419190612ed2565b60405180910390a3505050565b60008373ffffffffffffffffffffffffffffffffffffffff163b1115611cff578273ffffffffffffffffffffffffffffffffffffffff1663150b7a02611b926117b7565b8685856040518563ffffffff1660e01b8152600401611bb49493929190613b7a565b6020604051808303816000875af1925050508015611bf057506040513d601f19601f82011682018060405250810190611bed9190613bdb565b60015b611c74573d8060008114611c20576040519150601f19603f3d011682016040523d82523d6000602084013e611c25565b606091505b506000815103611c6c57836040517f64a0ae92000000000000000000000000000000000000000000000000000000008152600401611c6391906130f3565b60405180910390fd5b805181602001fd5b63150b7a0260e01b7bffffffffffffffffffffffffffffffffffffffffffffffffffffffff1916817bffffffffffffffffffffffffffffffffffffffffffffffffffffffff191614611cfd57836040517f64a0ae92000000000000000000000000000000000000000000000000000000008152600401611cf491906130f3565b60405180910390fd5b505b50505050565b6060611d10826116f2565b506000600b60008481526020019081526020016000208054611d31906135e1565b80601f0160208091040260200160405190810160405280929190818152602001828054611d5d906135e1565b8015611daa5780601f10611d7f57610100808354040283529160200191611daa565b820191906000526020600020905b815481529060010190602001808311611d8d57829003601f168201915b505050505090506000611dbb612151565b90506000815103611dd0578192505050611e13565b600082511115611e05578082604051602001611ded929190613c44565b60405160208183030381529060405292505050611e13565b611e0e84612171565b925050505b919050565b60007f780e9d63000000000000000000000000000000000000000000000000000000007bffffffffffffffffffffffffffffffffffffffffffffffffffffffff1916827bffffffffffffffffffffffffffffffffffffffffffffffffffffffff19161480611e8b5750611e8a826121da565b5b9050919050565b60006002600083815260200190815260200160002060009054906101000a900473ffffffffffffffffffffffffffffffffffffffff169050919050565b8080611f085750600073ffffffffffffffffffffffffffffffffffffffff168273ffffffffffffffffffffffffffffffffffffffff1614155b1561203c576000611f18846116f2565b9050600073ffffffffffffffffffffffffffffffffffffffff168373ffffffffffffffffffffffffffffffffffffffff1614158015611f8357508273ffffffffffffffffffffffffffffffffffffffff168173ffffffffffffffffffffffffffffffffffffffff1614155b8015611f965750611f9481846114dd565b155b15611fd857826040517fa9fbf51f000000000000000000000000000000000000000000000000000000008152600401611fcf91906130f3565b60405180910390fd5b811561203a57838573ffffffffffffffffffffffffffffffffffffffff168273ffffffffffffffffffffffffffffffffffffffff167f8c5be1e5ebec7d5bd14f71427d1e84f3dd0314c0f7b2291e5b200ac8c7c3b92560405160405180910390a45b505b836004600085815260200190815260200160002060006101000a81548173ffffffffffffffffffffffffffffffffffffffff021916908373ffffffffffffffffffffffffffffffffffffffff16021790555050505050565b600061209e612110565b6120a98484846122bc565b90509392505050565b6120cc8282604051806020016040528060008152506123d9565b5050565b6120d8610fb6565b61210e576040517f8dfc202b00000000000000000000000000000000000000000000000000000000815260040160405180910390fd5b565b612118610fb6565b1561214f576040517fd93c066500000000000000000000000000000000000000000000000000000000815260040160405180910390fd5b565b6060604051806060016040528060368152602001613ccc60369139905090565b606061217c826116f2565b506000612187612151565b905060008151116121a757604051806020016040528060008152506121d2565b806121b1846123f5565b6040516020016121c2929190613c44565b6040516020818303038152906040525b915050919050565b60007f80ac58cd000000000000000000000000000000000000000000000000000000007bffffffffffffffffffffffffffffffffffffffffffffffffffffffff1916827bffffffffffffffffffffffffffffffffffffffffffffffffffffffff191614806122a557507f5b5e139f000000000000000000000000000000000000000000000000000000007bffffffffffffffffffffffffffffffffffffffffffffffffffffffff1916827bffffffffffffffffffffffffffffffffffffffffffffffffffffffff1916145b806122b557506122b4826124c3565b5b9050919050565b6000806122ca85858561252d565b9050600073ffffffffffffffffffffffffffffffffffffffff168173ffffffffffffffffffffffffffffffffffffffff160361230e5761230984612747565b61234d565b8473ffffffffffffffffffffffffffffffffffffffff168173ffffffffffffffffffffffffffffffffffffffff161461234c5761234b8185612790565b5b5b600073ffffffffffffffffffffffffffffffffffffffff168573ffffffffffffffffffffffffffffffffffffffff160361238f5761238a846128f1565b6123ce565b8473ffffffffffffffffffffffffffffffffffffffff168173ffffffffffffffffffffffffffffffffffffffff16146123cd576123cc85856129c2565b5b5b809150509392505050565b6123e38383612a4d565b6123f06000848484611b4e565b505050565b60606000600161240484612b46565b01905060008167ffffffffffffffff811115612423576124226133c4565b5b6040519080825280601f01601f1916602001820160405280156124555781602001600182028036833780820191505090505b509050600082602001820190505b6001156124b8578080600190039150507f3031323334353637383961626364656600000000000000000000000000000000600a86061a8153600a85816124ac576124ab6136ba565b5b04945060008503612463575b819350505050919050565b60007f01ffc9a7000000000000000000000000000000000000000000000000000000007bffffffffffffffffffffffffffffffffffffffffffffffffffffffff1916827bffffffffffffffffffffffffffffffffffffffffffffffffffffffff1916149050919050565b60008061253984611e92565b9050600073ffffffffffffffffffffffffffffffffffffffff168373ffffffffffffffffffffffffffffffffffffffff161461257b5761257a818486612c99565b5b600073ffffffffffffffffffffffffffffffffffffffff168173ffffffffffffffffffffffffffffffffffffffff161461260c576125bd600085600080611ecf565b6001600360008373ffffffffffffffffffffffffffffffffffffffff1673ffffffffffffffffffffffffffffffffffffffff168152602001908152602001600020600082825403925050819055505b600073ffffffffffffffffffffffffffffffffffffffff168573ffffffffffffffffffffffffffffffffffffffff161461268f576001600360008773ffffffffffffffffffffffffffffffffffffffff1673ffffffffffffffffffffffffffffffffffffffff168152602001908152602001600020600082825401925050819055505b846002600086815260200190815260200160002060006101000a81548173ffffffffffffffffffffffffffffffffffffffff021916908373ffffffffffffffffffffffffffffffffffffffff160217905550838573ffffffffffffffffffffffffffffffffffffffff168273ffffffffffffffffffffffffffffffffffffffff167fddf252ad1be2c89b69c2b068fc378daa952ba7f163c4a11628f55a4df523b3ef60405160405180910390a4809150509392505050565b6008805490506009600083815260200190815260200160002081905550600881908060018154018082558091505060019003906000526020600020016000909190919091505550565b600061279b83611140565b9050600060076000848152602001908152602001600020549050818114612880576000600660008673ffffffffffffffffffffffffffffffffffffffff1673ffffffffffffffffffffffffffffffffffffffff168152602001908152602001600020600084815260200190815260200160002054905080600660008773ffffffffffffffffffffffffffffffffffffffff1673ffffffffffffffffffffffffffffffffffffffff168152602001908152602001600020600084815260200190815260200160002081905550816007600083815260200190815260200160002081905550505b6007600084815260200190815260200160002060009055600660008573ffffffffffffffffffffffffffffffffffffffff1673ffffffffffffffffffffffffffffffffffffffff16815260200190815260200160002060008381526020019081526020016000206000905550505050565b600060016008805490506129059190613c68565b9050600060096000848152602001908152602001600020549050600060088381548110612935576129346139b2565b5b906000526020600020015490508060088381548110612957576129566139b2565b5b9060005260206000200181905550816009600083815260200190815260200160002081905550600960008581526020019081526020016000206000905560088054806129a6576129a5613c9c565b5b6001900381819060005260206000200160009055905550505050565b600060016129cf84611140565b6129d99190613c68565b905081600660008573ffffffffffffffffffffffffffffffffffffffff1673ffffffffffffffffffffffffffffffffffffffff168152602001908152602001600020600083815260200190815260200160002081905550806007600084815260200190815260200160002081905550505050565b600073ffffffffffffffffffffffffffffffffffffffff168273ffffffffffffffffffffffffffffffffffffffff1603612abf5760006040517f64a0ae92000000000000000000000000000000000000000000000000000000008152600401612ab691906130f3565b60405180910390fd5b6000612acd838360006117d1565b9050600073ffffffffffffffffffffffffffffffffffffffff168173ffffffffffffffffffffffffffffffffffffffff1614612b415760006040517f73c6ac6e000000000000000000000000000000000000000000000000000000008152600401612b3891906130f3565b60405180910390fd5b505050565b600080600090507a184f03e93ff9f4daa797ed6e38ed64bf6a1f0100000000000000008310612ba4577a184f03e93ff9f4daa797ed6e38ed64bf6a1f0100000000000000008381612b9a57612b996136ba565b5b0492506040810190505b6d04ee2d6d415b85acef81000000008310612be1576d04ee2d6d415b85acef81000000008381612bd757612bd66136ba565b5b0492506020810190505b662386f26fc100008310612c1057662386f26fc100008381612c0657612c056136ba565b5b0492506010810190505b6305f5e1008310612c39576305f5e1008381612c2f57612c2e6136ba565b5b0492506008810190505b6127108310612c5e576127108381612c5457612c536136ba565b5b0492506004810190505b60648310612c815760648381612c7757612c766136ba565b5b0492506002810190505b600a8310612c90576001810190505b80915050919050565b612ca4838383612d5d565b612d5857600073ffffffffffffffffffffffffffffffffffffffff168373ffffffffffffffffffffffffffffffffffffffff1603612d1957806040517f7e273289000000000000000000000000000000000000000000000000000000008152600401612d10919061315d565b60405180910390fd5b81816040517f177e802f000000000000000000000000000000000000000000000000000000008152600401612d4f929190613238565b60405180910390fd5b505050565b60008073ffffffffffffffffffffffffffffffffffffffff168373ffffffffffffffffffffffffffffffffffffffff1614158015612e1557508273ffffffffffffffffffffffffffffffffffffffff168473ffffffffffffffffffffffffffffffffffffffff161480612dd65750612dd584846114dd565b5b80612e1457508273ffffffffffffffffffffffffffffffffffffffff16612dfc8361177a565b73ffffffffffffffffffffffffffffffffffffffff16145b5b90509392505050565b6000604051905090565b600080fd5b600080fd5b60007fffffffff0000000000000000000000000000000000000000000000000000000082169050919050565b612e6781612e32565b8114612e7257600080fd5b50565b600081359050612e8481612e5e565b92915050565b600060208284031215612ea057612e9f612e28565b5b6000612eae84828501612e75565b91505092915050565b60008115159050919050565b612ecc81612eb7565b82525050565b6000602082019050612ee76000830184612ec3565b92915050565b600073ffffffffffffffffffffffffffffffffffffffff82169050919050565b6000612f1882612eed565b9050919050565b612f2881612f0d565b8114612f3357600080fd5b50565b600081359050612f4581612f1f565b92915050565b60006bffffffffffffffffffffffff82169050919050565b612f6c81612f4b565b8114612f7757600080fd5b50565b600081359050612f8981612f63565b92915050565b60008060408385031215612fa657612fa5612e28565b5b6000612fb485828601612f36565b9250506020612fc585828601612f7a565b9150509250929050565b600081519050919050565b600082825260208201905092915050565b60005b83811015613009578082015181840152602081019050612fee565b60008484015250505050565b6000601f19601f8301169050919050565b600061303182612fcf565b61303b8185612fda565b935061304b818560208601612feb565b61305481613015565b840191505092915050565b600060208201905081810360008301526130798184613026565b905092915050565b6000819050919050565b61309481613081565b811461309f57600080fd5b50565b6000813590506130b18161308b565b92915050565b6000602082840312156130cd576130cc612e28565b5b60006130db848285016130a2565b91505092915050565b6130ed81612f0d565b82525050565b600060208201905061310860008301846130e4565b92915050565b6000806040838503121561312557613124612e28565b5b600061313385828601612f36565b9250506020613144858286016130a2565b9150509250929050565b61315781613081565b82525050565b6000602082019050613172600083018461314e565b92915050565b60008060006060848603121561319157613190612e28565b5b600061319f86828701612f36565b93505060206131b086828701612f36565b92505060406131c1868287016130a2565b9150509250925092565b6000602082840312156131e1576131e0612e28565b5b60006131ef84828501612f36565b91505092915050565b6000806040838503121561320f5761320e612e28565b5b600061321d858286016130a2565b925050602061322e858286016130a2565b9150509250929050565b600060408201905061324d60008301856130e4565b61325a602083018461314e565b9392505050565b61326a81612eb7565b811461327557600080fd5b50565b60008135905061328781613261565b92915050565b600080604083850312156132a4576132a3612e28565b5b60006132b285828601613278565b92505060206132c385828601613278565b9150509250929050565b600080fd5b600080fd5b600080fd5b60008083601f8401126132f2576132f16132cd565b5b8235905067ffffffffffffffff81111561330f5761330e6132d2565b5b60208301915083602082028301111561332b5761332a6132d7565b5b9250929050565b6000806020838503121561334957613348612e28565b5b600083013567ffffffffffffffff81111561336757613366612e2d565b5b613373858286016132dc565b92509250509250929050565b6000806040838503121561339657613395612e28565b5b60006133a485828601612f36565b92505060206133b585828601613278565b9150509250929050565b600080fd5b7f4e487b7100000000000000000000000000000000000000000000000000000000600052604160045260246000fd5b6133fc82613015565b810181811067ffffffffffffffff8211171561341b5761341a6133c4565b5b80604052505050565b600061342e612e1e565b905061343a82826133f3565b919050565b600067ffffffffffffffff82111561345a576134596133c4565b5b61346382613015565b9050602081019050919050565b82818337600083830152505050565b600061349261348d8461343f565b613424565b9050828152602081018484840111156134ae576134ad6133bf565b5b6134b9848285613470565b509392505050565b600082601f8301126134d6576134d56132cd565b5b81356134e684826020860161347f565b91505092915050565b6000806000806080858703121561350957613508612e28565b5b600061351787828801612f36565b945050602061352887828801612f36565b9350506040613539878288016130a2565b925050606085013567ffffffffffffffff81111561355a57613559612e2d565b5b613566878288016134c1565b91505092959194509250565b6000806040838503121561358957613588612e28565b5b600061359785828601612f36565b92505060206135a885828601612f36565b9150509250929050565b7f4e487b7100000000000000000000000000000000000000000000000000000000600052602260045260246000fd5b600060028204905060018216806135f957607f821691505b60208210810361360c5761360b6135b2565b5b50919050565b600060608201905061362760008301866130e4565b613634602083018561314e565b61364160408301846130e4565b949350505050565b7f4e487b7100000000000000000000000000000000000000000000000000000000600052601160045260246000fd5b600061368382613081565b915061368e83613081565b925082820261369c81613081565b915082820484148315176136b3576136b2613649565b5b5092915050565b7f4e487b7100000000000000000000000000000000000000000000000000000000600052601260045260246000fd5b60006136f482613081565b91506136ff83613081565b92508261370f5761370e6136ba565b5b828204905092915050565b7f5055424c4943204d494e5420434c4f5345440000000000000000000000000000600082015250565b6000613750601283612fda565b915061375b8261371a565b602082019050919050565b6000602082019050818103600083015261377f81613743565b9050919050565b7f4d555354204d494e542041544c45415354204f4e4520544f4b454e0000000000600082015250565b60006137bc601b83612fda565b91506137c782613786565b602082019050919050565b600060208201905081810360008301526137eb816137af565b9050919050565b60006137fd82613081565b915061380883613081565b92508282019050808211156138205761381f613649565b5b92915050565b7f4558434545444544204d4158205045522057414c4c4554000000000000000000600082015250565b600061385c601783612fda565b915061386782613826565b602082019050919050565b6000602082019050818103600083015261388b8161384f565b9050919050565b7f4e4f5420454e4f5547482046554e445300000000000000000000000000000000600082015250565b60006138c8601083612fda565b91506138d382613892565b602082019050919050565b600060208201905081810360008301526138f7816138bb565b9050919050565b7f534f4c44204f5554000000000000000000000000000000000000000000000000600082015250565b6000613934600883612fda565b915061393f826138fe565b602082019050919050565b6000602082019050818103600083015261396381613927565b9050919050565b600061397582613081565b91507fffffffffffffffffffffffffffffffffffffffffffffffffffffffffffffffff82036139a7576139a6613649565b5b600182019050919050565b7f4e487b7100000000000000000000000000000000000000000000000000000000600052603260045260246000fd5b7f4164647265737320616c7265616479206f6e2074686520616c6c6f776c697374600082015250565b6000613a17602083612fda565b9150613a22826139e1565b602082019050919050565b60006020820190508181036000830152613a4681613a0a565b9050919050565b7f414c4c4f57204c49535420434c4f534544000000000000000000000000000000600082015250565b6000613a83601183612fda565b9150613a8e82613a4d565b602082019050919050565b60006020820190508181036000830152613ab281613a76565b9050919050565b7f594f5520415245204e4f54204f4e2054484520414c4c4f57204c495354000000600082015250565b6000613aef601d83612fda565b9150613afa82613ab9565b602082019050919050565b60006020820190508181036000830152613b1e81613ae2565b9050919050565b600081519050919050565b600082825260208201905092915050565b6000613b4c82613b25565b613b568185613b30565b9350613b66818560208601612feb565b613b6f81613015565b840191505092915050565b6000608082019050613b8f60008301876130e4565b613b9c60208301866130e4565b613ba9604083018561314e565b8181036060830152613bbb8184613b41565b905095945050505050565b600081519050613bd581612e5e565b92915050565b600060208284031215613bf157613bf0612e28565b5b6000613bff84828501613bc6565b91505092915050565b600081905092915050565b6000613c1e82612fcf565b613c288185613c08565b9350613c38818560208601612feb565b80840191505092915050565b6000613c508285613c13565b9150613c5c8284613c13565b91508190509392505050565b6000613c7382613081565b9150613c7e83613081565b9250828203905081811115613c9657613c95613649565b5b92915050565b7f4e487b7100000000000000000000000000000000000000000000000000000000600052603160045260246000fdfe697066733a2f2f516d59324c4639415a347658726d4c46627747524a4377756e50593148754e73526a6a7961326f6470324d5373502fa2646970667358221220336115dd4b4914a6860668958242d86cf4231ca84f4638b5905e34734458d41464736f6c63430008140033",
    "linkReferences": {},
    "deployedLinkReferences": {}
}